:020000040800F2
:10000000E041002045010008792B0008752B00080D
:1000100000000000000000000000000000000000E0
:100020000000000000000000000000000D3000088B
:10003000000000000000000003010008113000086B
:100040005701000800000000570100085701000890
:100050005701000857010008570100085701000820
:100060000000000057010008490B00085701000874
:100070005701000857010008570100080000000060
:1000800057010008570100085701000857010008F0
:1000900057010008570100085701000857010008E0
:1000A000570100085701000857010008893F000860
:1000B000570100080448854600F090FC00480047BE
:1000C00071750008C046C046E0410020084B196821
:1000D0000868203080F30988022080F31488BFF379
:1000E0006F8F3FBCAE4608BC04BC62B61847000028
:1000F000C0000020EFF3108072B6704780F31088C4
:100100007047EFF309800E4B1A6820381060F0C07A
:1001100044464D4656465F46F0C008B572B60AF0F2
:10012000CFFC62B60CBC116808681030F0C8A0465D
:10013000A946B246BB4680F309882038F0C8184764
:10014000C00000200448804704480047FEE7FEE75F
:10015000FEE7FEE7FEE7FEE729300008B5000008ED
:1001600030B50B46014600202022012409E00D464F
:10017000D5409D4205D31D469540491B25469540D7
:1001800040191546521E002DF1DC30BD70B500241B
:100190002546002801DA01244042002901DA012520
:1001A0004942FFF7DDFFAC4200D04042002C00D0B6
:1001B000494270BD03460B439B0703D009E008C9C1
:1001C000121F08C0042AFAD203E00B780370401C07
:1001D000491C521EF9D27047D2B201E00270401C95
:1001E000491EFBD270470022F6E710B513460A46B7
:1001F00004461946FFF7F0FF204610BD421C017867
:10020000401C0029FBD1801A704710B5002200E085
:10021000521C835C8C5CA34201D1002BF8D1D8B274
:10022000E1B2401A10BD30B504460020034600E09C
:100230005B1C934203D2E05CCD5C401BF8D030BD28
:1002400030B505460020034600E05B1C934205D212
:10025000EC5CC85C201A01D1002CF6D130BD70B521
:10026000064603F073FF046805460A220021304663
:1002700000F0A8FA2C6070BD024670B54A40D30F5A
:10028000DB0740002DD04A002AD0010E140E0002D8
:1002900012020919400A520A8418E501044654431F
:1002A000000A120A2E045043A4194219200CC54317
:1002B000AA18120C0125AD03521C521912047F39E1
:1002C000240400D0521C104301D44000491EC2B285
:1002D0000C06C0092018401C4008802A02D003E008
:1002E000002070BD40084000002900DA00201843BB
:1002F00070BD70B502464A40D50F40004A00ED0778
:1003000040085208002814D0002A12D0C40DD30D82
:1003100041020120C0055202490A520AE41A091892
:1003200012187D34914201D3641C00E04900002C76
:1003300001DA002070BD0023914201D3891A0343E2
:10034000400849000028F7D100290AD0914202D183
:100350000121C90705E0914201D2012101E00121FB
:10036000C943E005C018401900F064FA70BD0000F0
:10037000F0B507460846584087B0C00F04904800C3
:100380000E46590040084908BC1A884105D2384633
:1003900031461E4617460B46024658004008104399
:1003A0004DD0300D039040055900400D490D05908A
:1003B000401A0290402873DA18030121000B090546
:1003C0000843019004980092002806D01146019A33
:1003D00049420020904100910190029840210A1A60
:1003E0000199009800F0CAF905460C466B4607CB08
:1003F00000F0D4F9C0197141039A0E0D0023D717EC
:1004000056401A467A40164344D0049A002A2DD00A
:10041000029A012A039A15DC1205C01A914101269D
:100420003605001C7141D20F059ED2070093019240
:1004300002962A46234600F04BFA07B0F0BD384634
:100440003146FAE71605234A0F46B218C01AB741DB
:1004500001210905001C4F4100187F411146181861
:100460007941E20F10436D19644113E0E2076D0812
:1004700015436408C2071443039A01261205C01AE3
:1004800091413605001C7141CE07400830434908B0
:10049000C01851412A46234600F00DFACDE7FFE788
:1004A000049801224000C117121A00238B410498BE
:1004B0003146C417381AA141EEE730B40124E407ED
:1004C000634030BC54E730B40124E407614030BCE1
:1004D0004EE700000000E0FFF0B51FB488B00B99B4
:1004E0000998002448400999C00F4900490809911A
:1004F000C0070B990090490049080B910999089889
:10050000A64608431CD00B990A98084318D00998AE
:1005100001244000420D4800410D099824050003C4
:10052000000B204309900B980003000B20430B9015
:1005300050181C494018002201901446104605E04E
:10054000002001460DB0F0BD032801DA034600E0AB
:1005500003239C46C11A0AAE0AE05F0008ADED5BBA
:100560004F00F75B7D430027AA187C41491C5B1EA6
:100570006145F2DD410004AB5A522104120C0A43DA
:10058000240C401C0828DFDB01980290009970467B
:1005900001910090059B049A0799069800F098F93C
:1005A000D0E700000DFCFFFFF0B50C465C4085B0C5
:1005B000E40FE40703944C000026640859009446B5
:1005C000490802460296224321D062460A431ED0C1
:1005D0006200570D4A000E032303550D0124024605
:1005E0002C492405781B1B0B360B4018234326434C
:1005F000614600901C46501AB44103D30098401C39
:10060000009002E0921800985B41002803DA002075
:10061000014605B0F0BD00200121090507468646C8
:1006200011E064461D46141BB54106D36546521BB6
:10063000B341744607430C43A646CD07400849081A
:10064000284392185B4105460D43EAD110461843F2
:1006500013D06046194650407140084306D06046AA
:10066000101AB34106D20122002306E00022012322
:10067000DB0702E00122D2435310009874460105C3
:10068000381C6141029C039D0019694100F013F977
:10069000BFE70000FD030000C217C10F504010B5B6
:1006A0004018CA079623002100F0CCF810BD10B501
:1006B00000229623114600F0C5F810BDC20FD207E4
:1006C000400040080BD0C10D0723DB01C9184002D0
:1006D0000905400A1143C208400711437047002032
:1006E00001467047CB0FDB07490010B549080246A9
:1006F0000A4307D00A0D07240903E401090B121B62
:10070000002A01DC002010BDC900440F0C43C100C9
:10071000E018D205801800F08DF810BDF0B51FB4B8
:100720000646002082B005464024019100901BE05F
:10073000019922460F46304600F062F9049A059B63
:10074000801A994110D310461946224600F016F837
:10075000361A8F410197224601200021009F00F0A8
:100760000DF838184D4100902046641E0028DFDC4B
:10077000019B00982946324607B0F0BD10B5202AEB
:1007800004DB0146203A9140002010BD9140202317
:100790009C1A0346E3401943904010BD10B5202A2F
:1007A00006DBCB170846203A1041C1170B4306E081
:1007B0000B461341D0402024A21A91400843194609
:1007C00010BD0000F7B5009C0F4600262578641C7C
:1007D000002D05D000F026F90068405DC007F5D176
:1007E0002B2D02D02D2D18D0641E39462046029A9A
:1007F00000F01CF9002F04D03968A14201D1009902
:1008000039607105022400290BDA4042002803DD1B
:1008100003F09CFC0460A007FEBD0120800206439B
:10082000E3E70028F8DA03F091FC04600048FEBD1D
:10083000FFFFFF7F002904DA401C490001D1400876
:100840004000704770B40024050C05D1102400044A
:1008500002D1002921D01124050E01D10002083453
:10086000050F01D10001241D850F01D18000A41CBA
:10087000002801DB4000641C002908D020252E1B25
:100880000D46F540A14000D001212943084301064F
:100890001B1B000ADB1D02D5002070BC7047DB0566
:1008A000181880180029F8DA401C4900F5D170BCEE
:1008B00040084000704710B5002B08DA0024401CA7
:1008C000614192185B411A4301D14008400010BDBC
:1008D000F0B51FB482B005460C0003D0084603F003
:1008E00097FB02E003F094FB203002460090214683
:1008F0002846FFF743FF049B059A04460F4618431A
:100900001143084314D0184610431BD000984021CF
:100910000A1A1846059900F073F805460E46009A23
:1009200005990498FFF72AFF084305D0012004E049
:100930002046394607B0F0BD0020C11705430E43DD
:100940002C43374300990E986305401A7905E40A51
:1009500000220C43FD0A0A3002D500200146E9E7D7
:100960000105101969410C9C0D9D00196941FFF7A3
:10097000A2FFDFE74A0009030123090B1B05194306
:100980000A4B10B5520D9A4202DA0020014610BD02
:10099000064B34339A4203DC9A1A00F031F810BD4A
:1009A000034BD218FFF7EAFE10BD0000FF03000062
:1009B000CDFBFFFF10B5002904DB0124E407404212
:1009C0008C412146002B04DB1C460123DB075242ED
:1009D000A341994200D1904210BD0000064C012570
:1009E000064E05E0E36807CC2B430C3C98471034D7
:1009F000B442F7D3FFF762FB58C4000878C400087C
:100A000010B5202A04DB0846203AD040002110BD52
:100A10000B46D340D0402024A21A914008431946E7
:100A200010BD000000487047ECBF0008F7B582B069
:100A3000029C00272078641C15460197302802D0BC
:100A4000002D15D015E020780127641C782804D0EB
:100A5000582802D0002D09D00BE0002D01D0102D18
:100A600007D1002710252078641C02E0082500E04B
:100A70000A250026009610E000990127694308180E
:100A8000020C294680B2714300908E1838048642C9
:100A900001D3012001902078641C294600F019F848
:100AA0000028E9DA0398002805D0002F01D0641E41
:100AB00000E0029C04600198002806D003F046FB89
:100AC00002210160C81E05B0F0BD00993004084342
:100AD000F9E73A2800D23038202302469A43412AC7
:100AE00001D310463738884201D30020C0437047F5
:100AF00070B58C180578401C6B075B0F01D103782B
:100B0000401C2A1106D10278401C03E006780E70C2
:100B1000401C491C5B1EF9D12B0705D40023521E33
:100B20000DD40B70491CFAE70378401CCB1A921CB9
:100B300003E01D780D70491C5B1C521EF9D5A142C3
:100B4000D8D3002070BD000010B5034800F0F2F8C3
:100B5000024800F0EFF810BD4C360020F0350020C0
:100B600070B50446206C8008800009494018606414
:100B70002178084608381421FFF7F2FA05460448A0
:100B80008030A064E906C90E01208840E06470BD91
:100B90000008024002799106890E4A1E9200064B17
:100BA000D2180265044A403242654A1E93079B0FE1
:100BB00001229A40826570470009024070B5856C39
:100BC000C46C6C60046D002C02D0456D846D6C604B
:100BD0000C4C64681C26056C35400126AE4034433D
:100BE000084D6C60046863608468102C04D104684C
:100BF000A2600468E16003E00468A1600468E26048
:100C000070BD0000000002400146002901D1012012
:100C100070472520405C022808D00420C86300BF2C
:100C200000222420425400BF0120F1E70868006838
:100C30000E2290430A681060486C0068FF2201325F
:100C400090434A6C106008680068400840000A68D9
:100C50001060124840681C230A6C1A40012393401C
:100C600018430E4A50608A6CC86C5060086D0028AA
:100C700009D0086D0068FF22013290430A6D1060B0
:100C80004A6D886D506001222520425400BF002229
:100C90002420425400BF0020BAE7000000000240B8
:100CA00070B5044600252520005D022803D00420ED
:100CB000E06301253AE0206800680E21884321683E
:100CC0000860206800684008400021680860606C87
:100CD0000068FF2101318843616C08601448406856
:100CE0001C22216C114001228A40104310494860A7
:100CF000A16CE06C4860206D002809D0206D006870
:100D0000FF2101318843216D0860616DA06D48604D
:100D100001212520015500BF00212420015500BFDD
:100D2000A06B002802D02046A16B8847284670BDE2
:100D30000000024070B50446454805682068066812
:100D40001C20216C0140042088402840002820D02D
:100D50000420304000281CD0206800682021084072
:100D6000002805D1206800680421884321680860B4
:100D7000374840681C22216C114004228A401043ED
:100D800033494860206B002860D02046216B88479B
:100D90005CE01C20216C0140022088402840002893
:100DA00028D002203040002824D02068006820216C
:100DB0000840002808D1206800680A21884321687B
:100DC0000860012125200155214841681C22206C22
:100DD00010400222824011431D48416000BF0021A3
:100DE0002420015500BFE06A00282FD02046E16A88
:100DF00088472BE01C20216C0140082088402840B7
:100E0000002823D00820304000281FD02068006828
:100E10000E218843216808600D4841681C22206C1F
:100E20001040012282401143094841600120E063E3
:100E300001212520015500BF00212420015500BFBC
:100E4000606B002802D02046616B884770BD0000AF
:100E50000000024010B50446002C01D1012010BD55
:100E60002A4A2168881A1421FFF77AF98000206441
:100E70000221252001552068006825490840216885
:100E80000860E168A0680843216908436169084374
:100E9000A1690843E1690843216A08432168096898
:100EA0000843216808602046FFF75AFE01218903A4
:100EB000A068884201D10020606020798006800E01
:100EC000616C0860A16CE06C4860606800280CD020
:100ED0006068042809D82046FFF75CFE0020216DD9
:100EE0000860616DA06D486003E0002020656065CA
:100EF000A0650020E06301212520015500BF0021ED
:100F00002420015500BF0020A9E70000080002408E
:100F10000F80FFFFF8B504460D4616461F46002019
:100F2000009000BF2420005D012801D10220F8BDFF
:100F300001212420015500BF2520005D012844D156
:100F40000221252001550020E06320680068400848
:100F50004000216808603B46324629462046FFF79C
:100F60002DFE206B002806D0206800680E21084363
:100F7000216808600BE0206800680421884321682C
:100F80000860206800680A21084321680860606CD6
:100F90000068012109040840002805D0606C006841
:100FA00009120843616C0860206D002806D0206D8E
:100FB0000068FF2101310843216D08602068006846
:100FC000012108432168086008E08020E06300BF39
:100FD00000212420015500BF012000900098A6E7C1
:100FE00070B503460A460021D7E001268E401468FA
:100FF0003440002C73D01579AD07AD0F012D04D00E
:101000001579AD07AD0F022D18D198684E00032554
:10101000B5400646AE4330464E00D568B54028433D
:101020009860586801258D400646AE43304610262C
:10103000556835402D098D40284358601579AD0716
:10104000AD0F032D0BD0D8684E000325B5400646E2
:10105000AE4330464E009568B5402843D8601579B8
:10106000AD07AD0F022D15D1CD08AE001D462035C0
:10107000A8594D07EE0E0F25B5400646AE43304643
:101080004E07F60E1569B5402843CD08AD001E4643
:101090002036705118684E000325B5400646AE4311
:1010A00030461579AD07AD0F4E00B54028431860A6
:1010B0000326360455683540002D6DD03A4D8E0814
:1010C000B600A8598D07EE0E0F25B5400646AE4373
:1010D000304605252D07AB4202D1002510E05BE02C
:1010E000324DAB4201D101250AE0314DAB4201D175
:1010F000022505E02F4DAB4201D1032500E0052577
:101100008E07F60EB5402843274D8E08B600A8512D
:10111000254D603D28680546A5432846012636052D
:1011200055683540002D02D00546254328461E4D02
:10113000603D286068680546A54328460126760577
:1011400055683540002D02D0054625432846164DEA
:10115000603D6860144D203568680546A543284603
:101160000126760455683540002D02D005462543FA
:1011700028460D4D2035686028680546A543284659
:101180000126360455683540002D02D0054625431A
:101190002846054D20352860491C1568CD40002D96
:1011A00000D022E770BD000060180240000400502B
:1011B00000080050000C0050024613690B40002B41
:1011C00001D0012000E000207047002A01D0816199
:1011D00000E081627047000001480068704700002D
:1011E0003C01002010B5002408480068FF210131AF
:1011F000084306490860032000F00AF8002801D0DF
:10120000012401E000F034F8204610BD0020024027
:10121000F8B5044600251348007800281ED0114870
:1012200001787D20C000FEF79BFF074639460E4837
:101230000068FEF795FF064601F0C8F800280BD1BC
:10124000042C07D200222146401E00F043F8074834
:10125000046004E0012502E0012500E001252846A4
:10126000F8BD0000440100203801002040010020AA
:10127000704700000146002915DBCB06DB0E01227A
:101280009A400A4B1A6000BF00BF00BFBFF34F8FE8
:1012900000BF00BF00BF00BF00BF00BFBFF36F8F24
:1012A00000BF00BF00BF00BF7047000080E100E04A
:1012B0000146002909DB00BF00BFCB06DB0E01227F
:1012C0009A40034B1A6000BF00BF00BF7047000088
:1012D00000E100E070B504460D461646294620465A
:1012E00002F0F8FE70BD000070B5044611480068B9
:1012F00003214902884320430E490860481584426F
:1013000016D10D4909680622514308460B49FEF7DC
:1013100027FF451C05E0002D01D06D1E01E00320D4
:1013200070BD044840690121890208408842F2D01A
:101330000020F5E7007000403801002040420F0017
:1013400070B504460D46002C01D1012070BD6B48DC
:1013500000684007400FA84218D268480068C008DB
:10136000C000284365490860FFF736FF064607E0DE
:10137000FFF732FF801B6249884201D90320E5E76D
:101380005E4800684007400FA842F1D10221206862
:101390000840022815D1042120680840042807D1FC
:1013A00058488068072109038843401855498860D8
:1013B000544880680F2109028843A16808435149B5
:1013C00088602078C007C00F002854D060680128CA
:1013D00008D14C48006801214904084000282ED15A
:1013E0000120B3E76068022808D14648006801215F
:1013F00049060840002822D10120A7E7606800289C
:1014000008D140480068012189020840002816D10F
:1014100001209BE76068032808D13A484030006A01
:101420000221084000280AD101208FE735484030CA
:10143000C06902210840002801D1012086E7314817
:101440008068C008C000616808432E498860FFF7C3
:10145000C3FE064607E0FFF7BFFE801B284988420F
:1014600001D9032072E72748806838210840616865
:10147000C9008842EFD1214800684007400FA842C8
:1014800018D91E480068C008C00028431B490860DE
:10149000FFF7A2FE064607E0FFF79EFE801B1849F5
:1014A000884201D9032051E7144800684007400FE3
:1014B000A842F1D1042120680840042808D111482D
:1014C0008068072109038843E16808430D49886063
:1014D00000F0D6F80B4989680F2212021140090A60
:1014E0008900094A515CC906C90EC840074908600D
:1014F00007480068FFF78CFE28E700000020024044
:10150000881300000010024070BD00083801002060
:1015100040010020072202600B4A92685207520FD6
:101520004260094A92680F231B021A408260064AF1
:10153000926807231B031A40C260044A12685207CC
:10154000520F0A6070470000001002400020024065
:101550000148006870470000380100200F21016039
:101560003C490968012292041140914203D10521AE
:10157000090441600AE03749096801221204114058
:10158000914201D1416001E0002141603149096887
:10159000FF2201321140914201D1C16001E00021DE
:1015A000C1602C4949687F2212021140090A416139
:1015B000284909680722D2021140016125494031BA
:1015C000C96904221140042902D1052181600BE080
:1015D00020494031C969C907C90F002902D001213A
:1015E000816001E0002181601A494031096AC90720
:1015F000C90F002902D00121816101E00021816130
:1016000014490968012212061140914202D10221B7
:10161000C16101E00121C1610E49C9688A07920FC9
:1016200002620C49C9687022114041620949C968C7
:101630007F22120211400A0A82620649C9681F22EB
:1016400052041140C1620349C9684A0F520702633C
:10165000704700000010024000B5FFF779FF06490F
:101660008968072212031140090B8900034A515C63
:10167000C906C90EC84000BD00100240B0BD000838
:10168000FEB5354880683821084000280DD1324821
:10169000006809020840C10A0120884000902F48D4
:1016A0000099FEF75DFD044654E02B488068382120
:1016B0000840082801D12A4C4CE02748806838218E
:1016C0000840102834D12448C0688607B60F224845
:1016D000C068702108400009401C0190022E0FD004
:1016E000032E0CD11E480199FEF73AFD1A49C9682C
:1016F0007F2212021140090A484305460DE000BF4F
:1017000016480199FEF72CFD1349C9687F22120281
:101710001140090A4843054600BF00BF0E48C06893
:10172000400F471C39462846FEF71AFD044611E0D3
:101730000948806838210840202801D1840209E046
:101740000548806838210840182802D17D242402E9
:1017500000E000242046FEBD001002400024F400FA
:1017600000127A00FEB50446002C01D10120FEBD16
:101770002078C007C00F00286FD0F748876838214D
:101780000F40C0688607B60F102F01D1032E01D07D
:10179000082F0BD1F04800680121490408400028B7
:1017A0005BD06068002858D10120E0E700BF01212C
:1017B00009046068884205D1E74800680843E649A3
:1017C000086021E005210904606888420ED1E248E2
:1017D0000068012189040843DF4908600846006861
:1017E000012109040843DC4908600DE0DA4800687B
:1017F000012109048843D84908600846006801218E
:1018000089048843D449086000BF6068002812D06A
:10181000FFF7E2FC054606E0FFF7DEFC401B64280C
:1018200001D90320A3E7CC480068012149040840FE
:101830000028F1D011E0FFF7CFFC054606E0FFF7E6
:10184000CBFC401B642801D9032090E7C248006804
:101850000121490408400028F1D1022120680840F4
:10186000022873D1BC488068382108400746BA482E
:10187000C0688607B60F102F01D1022E01D0002FAD
:1018800036D1B5480068012189020840002804D0FB
:10189000E068002801D1012069E7AF4840687F2156
:1018A00009028843616909020843AB494860002F77
:1018B00016D1084600680721C902884321690843F8
:1018C000A5490860084600680722D2021040C20AF3
:1018D000012090400146A148FEF742FCA049086063
:1018E000A0480068FFF794FC002849D001203EE79B
:1018F000E06800282BD0984800680721C902884377
:10190000216908439449086008460068891508431E
:1019100091490860FFF760FC054606E0FFF75CFCB4
:10192000401B022801D9032021E78B4800680121D0
:10193000890208400028F1D0874840687F210902C9
:1019400088436169090208438349486018E0824876
:101950000068FF21013188437F490860FFF73CFCA4
:10196000054606E0FFF738FC401B022801D903209A
:10197000FDE6794800680121890208400028F1D17C
:10198000082120680840082849D173488068382118
:10199000084018280BD170484030006A02210840E6
:1019A00000283CD0A069002839D10120DFE6A069D9
:1019B00000281AD068484030006A0121084366496F
:1019C00040310862FFF708FC054606E0FFF704FC1B
:1019D000401B022801D90320C9E65F484030006A55
:1019E000022108400028F1D019E05B484030006A2D
:1019F00040084000584940310862FFF7EDFB0546BA
:101A000006E0FFF7E9FB401B022801D90320AEE600
:101A100051484030006A022108400028F1D10421D9
:101A20002068084004287CD1002001904A48806842
:101A30003821084020280BD147484030C069022196
:101A4000084000286ED0A06800286BD101208EE6E7
:101A50004148C06B010F01208843002810D000BF0F
:101A60003D48C06B0121090708433B49C86308464C
:101A7000C06B09040840009000BF00BF0120019026
:101A800039480068FF2101310840002816D1364846
:101A90000068084334490860FFF79EFB054606E0EE
:101AA000FFF79AFB401B022801D903205FE62E486E
:101AB0000068FF21013108400028F1D000BFA06874
:101AC000012808D124484030C06901210843224937
:101AD0004031C86120E0A06805280FD11E48403081
:101AE000C069042108431C494031C8610846C069E7
:101AF0000121084318494031C8610DE016484030C3
:101B0000C0694108490014484030C161C0690421DE
:101B1000884311494031C86100BFA068002816D031
:101B200001E040E03EE0FFF757FB054607E0FFF726
:101B300053FB401B0D49884201D9032017E6064894
:101B40004030C069022108400028F0D01EE0FFF7B5
:101B500043FB054614E00000001002400024F4009E
:101B60003801002040010020007000408813000070
:101B7000FFF732FB401B6249884201D90320F6E59A
:101B80006048C069022108400028F1D1019801286D
:101B900008D15C484038C06B012109078843594986
:101BA0004039C86300BFE06900285AD05548403822
:101BB00080683821084010287AD0E069022851D185
:101BC0005048403800680121090688434D49403992
:101BD0000860FFF701FB054606E0FFF7FDFA401B32
:101BE000022801D90320C2E5464840380068012197
:101BF000490608400028F0D1616A206A0843A16ABA
:101C000009020843E16A0843216B08433D49403912
:101C1000C9683D4A114008433A494039C8600846FE
:101C20000068012109060843364940390860084622
:101C3000C0680904084333494039C860FFF7CCFA4B
:101C4000054606E0FFF7C8FA401B022801D9032029
:101C50008DE52C48403800680121490608400028DD
:101C6000F0D04AE02748403800680121090688433F
:101C7000244940390860FFF7AFFA054606E0FFF750
:101C8000ABFA401B022801D9032070E51D484038FB
:101C900000680121490608400028F0D11948403861
:101CA000C0681A49084017494039C86025E0FFE775
:101CB000E069012800D15AE512484038C668B107EA
:101CC000890F206A814216D170203040616A8842B3
:101CD00011D17F2000023040A16A090288420AD156
:101CE0001F2040043040E16A884204D1710F490747
:101CF000206B814201D0012039E5002037E500004A
:101D000088130000401002408C80C11FFCFFFEEFD2
:101D1000704770B50446002C01D1012070BD606A87
:101D2000002808D1FF2105316068884200D105E014
:101D30000021E16102E00021216161610021A162D5
:101D40005D20005D002804D15C200155204600F094
:101D500066F802215D200155206800684021884313
:101D60002168086007210902E068884201D900253E
:101D700001E001252D030F210902E068884206D009
:101D800007210902E068884201D00021A162FF21F9
:101D900005316068084021229202A1681140084381
:101DA0000222216911400843217DC907C90F084358
:101DB0001202A169114008433822E1691140084329
:101DC0008022216A114008439201A16A1140084310
:101DD00021680860A069000C042108401022616A93
:101DE000114008430822616B114008430F22120280
:101DF000E168114008430121090329400843216893
:101E000048602068C0690121C90288432168C8610F
:101E10000020206601215D20015500207EE77047EB
:101E2000F8B504460E46154600200090A06800282C
:101E30000ED1FF2105316068884209D104215D205F
:101E400001552B4632463146204600F0D1F8F8BD08
:101E500000BF5C20005D012801D10220F7E70121CD
:101E60005C20015500BF5D20005D012802D00220EA
:101E70000090A6E0002E01D0002D02D1012000909C
:101E80009FE004215D200155002020662664442047
:101E90000553462005530020E0642065A087E087B5
:101EA0004903A06888420CD120680068402188431B
:101EB000216808602068006801218903884321683F
:101EC0000860206840680121490388432168486010
:101ED00007210902E068884207D92068406801218B
:101EE000090388432168486032E020684068012186
:101EF0000903084321684860A06D806901218902B7
:101F0000884225D12068406889008843216848605C
:101F10004620005BC007C00F00280CD12068406835
:101F2000012149038843216848604620005B411035
:101F3000462001530CE02068406801214903084312
:101F4000216848604620005B4010401C4621085331
:101F50001F48A16D08631F48A16DC8621E48A16D8E
:101F600048630020A16D886346273B5B276839469C
:101F70000C31226CA06DFEF7CDFF002809D0206E39
:101F80001021084320660120009001215D200155A9
:101F900017E02068006840210840402804D02068ED
:101FA00000680843216808602068406820210843D1
:101FB0002168486020684068012108432168486022
:101FC00000BF00BF00215C20015500BF00983EE724
:101FD000A52B0008CF2B00087D2B000810B5044668
:101FE000014804F035FD10BD583500207047000051
:101FF000F0B585B004460E4617461D4600200190F8
:1020000000BF5C20005D012802D1022005B0F0BDB8
:1020100001215C20015500BF5D20005D02906068D9
:102020000390029801280DD0FF21053103988842C2
:1020300005D1A068002802D10298042802D002200D
:102040000190ECE0002E03D0002F01D0002D02D132
:1020500001200190E3E05D20005D042802D005210D
:102060005D20015500202066A663A587E5872764CB
:1020700044200553462005530020E0642065206875
:102080004068032149038843216848600721090209
:10209000E068884207D92068406801210903884325
:1020A0002168486052E02068406801210903084324
:1020B00021684860606D806901218902884219D1D8
:1020C000A08FC007C00F002809D12068406809010F
:1020D000884321684860E08F4010E0870AE020686C
:1020E000406801218903084321684860E08F40105F
:1020F000401CE087A06D806901218902884225D1BA
:102100002068406889008843216848604620005B59
:10211000C007C00F00280CD1206840680121490386
:102120008843216848604620005B411046200153E7
:102130000CE0206840680121490308432168486099
:102140004620005B4010401C462108535D20005D86
:10215000042806D13548A16D08633548A16DC862D1
:1021600005E03448A16D08633348A16DC862334867
:10217000A16D48630020A16D88634620035B206841
:1021800001460C31226CA06D0090FEF7C3FE0028C2
:1021900009D0206E10210843206601200190012102
:1021A0005D2001553BE0206840680121084321681B
:1021B00048600020616D0863616DC862616D4863AD
:1021C000616D8863E38F206802460C32A16B606DFD
:1021D0000090FEF79FFE002809D0206E10210843D2
:1021E00020660120019001215D20015517E0206843
:1021F000006840210840402804D020680068084357
:1022000021680860206840682021084321684860F0
:1022100020684068022108432168486000BF00BF71
:1022200000215C20015500BF0198EFE6A52B0008B6
:10223000CF2B0008C12B0008D12C00087D2B0008F3
:10224000F8B504460E4615460020009000BF5C20FD
:10225000005D012801D10220F8BD01215C2001555B
:1022600000BF5D20005D012802D0022000908CE0BC
:10227000002E01D0002D02D10120009085E0032125
:102280005D20015500202066A663A587E5872064B0
:102290002065E064002144200153462001530121C0
:1022A000C903A06888420CD1206800684021884397
:1022B00021680860206800680121890308432168BB
:1022C00008603548616D08633448616DC862344800
:1022D000616D48630020616D88632068406801215A
:1022E000890388432168486007210902E068884221
:1022F0001FD8606D806901218902884219D1E08F61
:10230000C007C00F002809D1206840680901884330
:1023100021684860E08F4010E0870AE0206840684C
:1023200001218903084321684860E08F4010401C68
:10233000E087E38F27683A460C32A16B606DFEF7A9
:10234000E9FD002809D0206E1021084320660120F5
:10235000009001215D20015517E0206800684021B0
:102360000840402804D020680068084321680860BD
:102370002068406820210843216848602068406840
:10238000022108432168486000BF00BF00215C2093
:10239000015500BF00985FE7B32B0008512C0008DF
:1023A0007D2B000810B50446014804F051FB10BD18
:1023B000583500207047000010B50446014804F06D
:1023C00047FB10BD583500207047000070B504462B
:1023D0002546681E0949884201D901200CE0681E83
:1023E000074948610321081F01F074FE00200449D9
:1023F000886107200861002070BD0000FFFFFF001A
:1024000000E000E070477047704770477047000079
:10241000F0B585B004462068C56920680668206864
:102420008768FB48284003900398002814D1202097
:102430002840002810D020203040002804D101205E
:1024400000073840002807D0206F002802D020461F
:10245000216F884705B0F0BD039800287ED0ED4875
:102460003840002803D1EC4830400028F6D0E80777
:10247000C00F00280DD0FF2001303040002808D0C8
:102480000120216808628C200059012108438C2119
:1024900008510220284000280CD0F807C00F00285F
:1024A00008D00220216808628C20005904210843CA
:1024B0008C2108510420284000280CD0F807C00FB8
:1024C000002808D00420216808628C2000590221CD
:1024D00008438C21085108202840002810D02020D3
:1024E0003040002803D1CB483840002808D00820CD
:1024F000216808628C200059082108438C2108516A
:102500000120C002284000280ED001208006304063
:10251000002809D00120C002216808628C200059DF
:10252000202108438C2108518C200059002859D0C3
:102530002020284000280ED020203040002804D140
:10254000012000073840002805D0206F002802D065
:102550002046216F88478C20005900E043E002901C
:102560002068806840210840402804D02821029833
:102570000840002830D0204600F024FE2068806803
:1025800040210840402823D100BF01F0E6FD019022
:10259000012001F0F4FD2068806840218843216813
:1025A0008860019801F0EBFD00BFE06F00280BD0C0
:1025B0009A48E16F8863E06FFEF772FB002811D044
:1025C000E06F816B88470DE02046FFF71FFF09E0B1
:1025D0002046FFF71BFF05E02046FFF717FF00210D
:1025E0008C20015136E7E06E01287CD11020284074
:1025F000002878D0102030400028FAD01020216820
:1026000008622068806840210840402871D1E06F4E
:102610000068406880B201900198002868D05C2072
:10262000015B0198814263DD5E2101980853E06FF0
:10263000006800682021084000284CD100BF01F04C
:102640008CFD0090012001F09AFD20680068FF21B8
:102650000131884321680860009801F090FD00BFB7
:1026600000BF01F07AFD0090012001F088FD206894
:1026700080684008400021688860009801F07FFD74
:1026800000BF00BF01F069FD0090012001F077FD5F
:10269000206880684021884321688860009801F0A4
:1026A0006EFD00BF2021882001510020E06600BFA0
:1026B00001F053FD0090012001F061FD20680068E9
:1026C0001021884321680860009801F058FD00BF80
:1026D000E06FFEF799FA5C20025B5E20005B101A47
:1026E00081B2204602E052E003E001E0FFF78AFEFB
:1026F000B0E65C20015B5E20005B081A80B20190AE
:102700005E20005B002841D0019800283ED000BF29
:1027100001F023FD0090012001F031FD20680068E8
:10272000FF212131884321680860009801F027FDCE
:1027300000BF00BF01F011FD0090012001F01FFD5E
:10274000206880683349C943084021688860009840
:1027500001F015FD00BF2021882001510020E06616
:10276000206700BF01F0F9FC0090012001F007FD97
:10277000206800681021884321680860009801F0F3
:10278000FEFC00BF20460199FFF73CFE62E60120F7
:102790000005284000280CD0012080053840002882
:1027A00007D001200005216808622046FFF72DFEB2
:1027B00050E68020284000280FD08020304000289C
:1027C00004D10120C0053840002806D0606F0028E1
:1027D00002D02046616F88473CE640202840002810
:1027E00007D040203040002803D0204600F02CFDC8
:1027F00030E60120C0052840002811D001208007C4
:10280000304000280CD02046FFF7FEFD22E60000F5
:102810000F0800000100001020010004AD31000885
:10282000012000062840002807D0F00FC00700282C
:1028300003D02046FFF7E7FD0CE600BF0AE610B51F
:102840000446002C01D1012010BDA069002800D051
:1028500000E000BF84200059002805D1002180201D
:102860000155204600F02CF82421842001512068D5
:1028700000684008400021680860204600F0F6FF2C
:10288000012800D1E0E7A06A002802D0204600F02D
:10289000D8FB206840680921C90288432168486044
:1028A000206880682A218843216888602068006841
:1028B0000121084321680860204600F03BFCC3E783
:1028C00010B586B00446142101A8FDF78CFC1F4901
:1028D0002068884237D100BF1D4800680121890364
:1028E00008431B4908600846006801218903084025
:1028F000009000BF00BF00BF15484038406B012169
:1029000008431349403948630846406BC007C00F6D
:10291000009000BF00BF03204002019002200290FF
:1029200000200390022004900120059001A90520B9
:102930000007FEF755FB002211461B20FEF7CAFCDC
:102940001B20FEF7B5FC06B010BD000000380140AA
:1029500040100240F8B504460D461646882000593E
:1029600020283ED1002D01D0002E01D10120F8BD3C
:1029700001210903A068884208D12069002805D1F7
:10298000E807C00F002801D00120F0E700BF802039
:10299000005D012801D10220E9E7012180200155D5
:1029A00000BF0020E06620684068C9050840002894
:1029B00011D000BF01F0D1FB0746012001F0DFFB81
:1029C00020680068012189060843216808603846AC
:1029D00001F0D5FB00BF32462946204601F05EF8E3
:1029E000C5E70220C3E7000010B504460749206888
:1029F000884209D1012206490648FFF7ABFF0122B0
:102A00000349054804F086FA10BD00000038014073
:102A100045010020A030002030310020F8B50446E8
:102A20000D46164684200059202878D1002D01D06B
:102A3000002E01D10120F8BD01210903A0688842C0
:102A400008D12069002805D1E807C00F002801D06F
:102A50000120F0E700BF8020005D012801D10220A5
:102A6000E9E701218020015500BF25655420065368
:102A7000562006530020606700218C20015121213F
:102A8000842001514907606E884222D14914A06810
:102A9000884205D12069002802D12248606701E000
:102AA0002148606700BF00218020015500BF00BFA2
:102AB00001F053FB0746012001F061FB20688068AC
:102AC0000121C905084321688860384601F057FB99
:102AD00022E001210903A068884205D1206900286D
:102AE00002D11248606701E01148606700BF002111
:102AF0008020015500BF00BF01F02FFB07460120D9
:102B000001F03DFB206800688021084321680860CF
:102B1000384601F034FB00BF00208CE7FFE70220BD
:102B200089E70000C93C0008D53D0008513C000879
:102B3000613D000838B50446002000900A4920682D
:102B400088420FD10121094804F080F90122694629
:102B5000064804F093F9002804D00122694604488D
:102B6000FFF75CFF38BD0000003801404C31002009
:102B7000A030002000BFFEE700BFFEE770B50546AD
:102B8000AC6A206840688008800021684860206E38
:102B900010210843206601215D2001552046FFF7E2
:102BA000B7F870BD70B50446A56A2846FFF71EFA4F
:102BB00070BD70B50446A56A2846FFF7FBFB70BDE3
:102BC00070B50446A56A2846FFF7FEFB70BD70B5D8
:102BD0000546AC6AFEF700FB06462868006820211F
:102BE000084020282FD0206840688843216848602A
:102BF000A06800280BD1FF2105316068884206D10A
:102C000020684068800880002168486005E02068EE
:102C100040684008400021684860324664212046F0
:102C200000F08CF8002801D02020206600214620EA
:102C3000015301215D200155206E002803D020465C
:102C4000FFF766F870BD2046FFF7C8F900BFF9E747
:102C5000F8B50546AC6AFEF7BFFA06462868006874
:102C60002021084020282ED0206840688843216811
:102C700048602068406802218843216848603246E5
:102C80006421204600F0A1F8002803D0206E202106
:102C900008432066A068002809D100BF0090206882
:102CA000C068009020688068009000BF00BF0020CE
:102CB000E08701215D200155206E002803D02046C9
:102CC000FFF726F8F8BD2046FFF76CFB00BFF9E7D9
:102CD00070B50546AC6AFEF77FFA064628680068BC
:102CE00020210840202824D020684068884321689B
:102CF000486032466421204600F067F8002803D07F
:102D0000206E2021084320662068406880088000EB
:102D1000216848600020E0870021462001530121FE
:102D20005D200155206E002803D02046FEF7F0FFFD
:102D300070BD2046FFF740FB00BFF9E7F8B5044639
:102D40000E461546FF210531606888420ED10121EB
:102D5000C903A068884203D04911A068884205D100
:102D600020680068402188432168086033460022BB
:102D700080212046009500F0DBF8002805D0206E69
:102D80002021084320660320F8BDFF21053160683B
:102D9000884218D10121C903A068884203D0491193
:102DA000A06888420FD13346002203214902204601
:102DB000009500F03FF8002805D0206E2021084340
:102DC00020660320E0E70020DEE7F8B504460E4663
:102DD0001546334600220321C9022046009500F023
:102DE00029F8002805D0206E202108432066032002
:102DF000F8BD3346002280212046009500F098F867
:102E0000002805D0206E2021084320660320EFE72C
:102E100033460022032149022046009500F00AF8BB
:102E2000002805D0206E2021084320660320DFE71C
:102E30000020DDE7F0B585B004460D4616461F4676
:102E400000200090FEF7C8F90A99401A381A03903A
:102E5000FEF7C2F9029020680C30019033480068F8
:102E600023214843000D03994843049056E0032072
:102E70004002854206D1002E04D1019801780091CC
:102E800068460078781C002848D0FEF7A5F902991A
:102E9000411A0398814202D20398002837D1206852
:102EA0004068E021884321684860FF21053160685F
:102EB00088420ED10121C903A068884203D049117C
:102EC000A068884205D120680068402188432168B5
:102ED000086001214903A06A88420DD100BF206823
:102EE0000068884321680860206800680121490360
:102EF00008432168086000BF01215D20015500BF23
:102F000000215C20015500BF032005B0F0BD0498EE
:102F1000002800D103900498401E04902068806827
:102F20002840B042A3D10020EFE700003801002084
:102F3000FFB583B004460D461E46FEF74DF90C99C9
:102F4000401A371AFEF748F901902F4800684001EF
:102F5000000D7843029049E0701C002846D0FEF72F
:102F60003BF90199401AB84201D2002F37D12068AD
:102F70004068E021884321684860FF21053160688E
:102F800088420ED10121C903A068884203D04911AB
:102F9000A068884205D120680068402188432168E4
:102FA000086001214903A06A88420DD100BF206852
:102FB000006888432168086020680068012149038F
:102FC00008432168086000BF01215D20015500BF52
:102FD00000215C20015500BF032007B0F0BD02981E
:102FE000002800D100270298401E029020688068C7
:102FF0002840A84201D1012100E00021059881422A
:10300000AAD10020E9E70000380100207047000045
:1030100010B50448006908F0FFFA012801D007F054
:10302000C5FD10BD00E000E0704770B505462846BC
:1030300005F0E8FD0446002C02D02168606888474E
:1030400070BD018DC907C90F002908D00168496802
:10305000012252049143C26A114302685160022264
:10306000816A1140022907D101684968D20391435E
:10307000026B1143026851600422816A11400429E5
:1030800007D10168496812049143426B11430268F9
:1030900051600822816A1140082907D101684968F6
:1030A00012039143826B1143026851601022816ABE
:1030B0001140102907D10168896812029143C26B3F
:1030C0001143026891602022816A1140202907D1B2
:1030D0000168896812029143026C11430268916091
:1030E0004022816A1140402915D101684968920344
:1030F0009143426C11430268516001221205416CF8
:10310000914208D101684968032252059143826CBB
:103110001143026851608022816A1140802907D1E1
:103120000168496812039143C26C114302685160FF
:103130007047000038B5044600218C200151FEF78D
:103140004BF80546206800680821084008280BD184
:1031500015482B46002289040090204600F084FE8A
:10316000002801D0032038BD2068006804210840F1
:1031700004280BD10C482B4600220905009020465C
:1031800000F072FE002801D00320ECE7202184200B
:103190000151882001510020E06600BF00218020FD
:1031A000015500BF0020DEE7FFFFFF0170B50546B7
:1031B000AC6A00215E200153562001532046FFF7E0
:1031C00025F970BD70B5044600BF00F0C6FF054686
:1031D000012000F0D4FF20680068FF2121318843DE
:1031E00021680860284600F0CAFF00BF00BF00F059
:1031F000B4FF0546012000F0C2FF20688068114935
:10320000084021688860284600F0B9FF00BFE06EE2
:10321000012810D100BF00F0A0FF0546012000F0FA
:10322000AEFF2068006810218843216808602846A6
:1032300000F0A5FF00BF2021882001510020E0669A
:10324000206770BDFEFFFFEF70B5044600BF00F0C1
:1032500084FF0546012000F092FF206800684021AD
:10326000884321680860284600F089FF00BF2021BC
:1032700084200151002060672046FFF75BFC70BD91
:10328000F8B504466020075B88200059222864D1E5
:103290002068406A86B2A56D304638402880A06D0F
:1032A000801CA0655E20005B401E81B25E20015341
:1032B000005B002857D100BF00F04FFF00900120B5
:1032C00000F05DFF20680068FF21213188432168FC
:1032D0000860009800F053FF00BF00BF00F03DFF02
:1032E0000090012000F04BFF2068806840084000FB
:1032F00021688860009800F042FF00BF20218820EC
:10330000015100202067E06E012822D10020E066F4
:1033100000BF00F022FF0090012000F030FF206885
:1033200000681021884321680860009800F027FF9A
:1033300000BF2068C069102108400009002802D0A1
:103340001020216808625C20015B2046FFF75AF8D4
:1033500009E02046FFF748FB05E020688069082166
:10336000084321688861F8BDF0B587B00446602045
:10337000005B06902068C56920680068039020689B
:10338000806802908820005922287DD16820005B47
:103390000490AFE02068406A80B20590A76D06995E
:1033A000059808403880A06D801CA0655E20005BF9
:1033B000401E81B25E2001532068C5696807400F36
:1033C000002840D0E807C00F00280ED0FF210131AF
:1033D00003980840002808D00120216808628C204A
:1033E0000059012108438C2108510220284000285F
:1033F0000DD00298C007C00F002808D00220216815
:1034000008628C200059042108438C2108510420B3
:10341000284000280DD00298C007C00F002808D00F
:103420000420216808628C200059022108438C2165
:1034300008518C200059002805D02046FEF7E6FFF1
:1034400000218C2001515E20005B002852D100BF7A
:1034500000F083FE0190012000F091FE20680068DA
:10346000FF210131884321680860019800F087FE40
:1034700000BF00BF00F071FE0190012000F07FFE50
:10348000206880683A4900E069E008402168886067
:10349000019800F074FE00BF202188200151002017
:1034A0002067E06E012822D10020E06600BF00F016
:1034B00054FE0190012000F062FE20680068102197
:1034C000884321680860019800F059FE00BF206819
:1034D000C069102108400009002802D0102021688E
:1034E00008625C20015B2046FEF78CFF02E020466C
:1034F000FFF77AFA0498002804D0202028400028FA
:1035000000D047E75E20065B002E2ED06820005BCF
:10351000B0422ADD00BF00F020FE0190012000F043
:103520002EFE206880680121090788432168886091
:10353000019800F024FE00BF0E48206700BF00F095
:103540000CFE0190012000F01AFE20680068202186
:10355000084321680860019800F011FE05E020682A
:103560008069082108432168886107B0F0BD000028
:10357000FEFFFFEF81320008F8B504466020065BCD
:1035800088200059222864D12068406A85B2F0B2B0
:103590002840A16D0870A06D401CA0655E20005BF6
:1035A000401E81B25E200153005B002857D100BF4E
:1035B00000F0D3FD0746012000F0E1FD206800681F
:1035C000FF212131884321680860384600F0D7FD8B
:1035D00000BF00BF00F0C1FD0746012000F0CFFD95
:1035E000206880684008400021688860384600F004
:1035F000C6FD00BF20218820015100202067E06E19
:10360000012822D10020E06600BF00F0A6FD074699
:10361000012000F0B4FD2068006810218843216873
:103620000860384600F0ABFD00BF2068C06910217B
:1036300008400009002802D01020216808625C20A0
:10364000015B2046FEF7DEFE09E02046FFF7CCF9DD
:1036500005E0206880690821084321688861F8BD79
:10366000F0B585B004466020005B04902068C56911
:1036700020680068029020688068019088200059C6
:1036800022287DD16820005B0390AEE02068406A6C
:1036900087B20498C0B23840A16D0870A06D401C7C
:1036A000A0655E20005B401E81B25E200153206851
:1036B000C5696807400F002840D0E807C00F002800
:1036C0000ED0FF21013102980840002808D00120C7
:1036D000216808628C200059012108438C2108517F
:1036E0000220284000280DD00198C007C00F0028F4
:1036F00008D00220216808628C2000590421084368
:103700008C2108510420284000280DD00198C007C2
:10371000C00F002808D00420216808628C200059BE
:10372000022108438C2108518C200059002805D023
:103730002046FEF76BFE00218C2001515E20005BCD
:10374000002852D100BF00F008FD0090012000F0D9
:1037500016FD20680068FF21013188432168086058
:10376000009800F00CFD00BF00BF00F0F6FC0090D8
:10377000012000F004FD206880683A49084000E01C
:1037800068E021688860009800F0F9FC00BF202103
:103790008820015100202067E06E012822D10020FE
:1037A000E06600BF00F0D9FC0090012000F0E7FCCB
:1037B000206800681021884321680860009800F0A4
:1037C000DEFC00BF2068C069102108400009002805
:1037D00002D01020216808625C20015B2046FEF7C1
:1037E00011FE02E02046FFF7FFF80398002804D0FE
:1037F00020202840002800D048E75E20065B002EED
:103800002ED06820005BB0422ADD00BF00F0A5FC8E
:103810000090012000F0B3FC2068806801210907B6
:10382000884321688860009800F0A9FC00BF0E481A
:10383000206700BF00F091FC0090012000F09FFC89
:10384000206800682021084321680860009800F083
:1038500096FC05E02068806908210843216888619A
:1038600005B0F0BDFEFFFFEF79350008F0B585B07B
:103870000446002001902169A0680843616908435B
:10388000E16908430390206800687A490840039979
:1038900008432168086020684068032109038843C1
:1038A000E168084321684860A0690390206A039991
:1038B00008430390206880686F49084003990843D3
:1038C000216888602068C06A00090001616A0843B5
:1038D0002168C86200BF69492068884217D16848DA
:1038E00040698007800F002806D0012808D00228F0
:1038F00004D0032808D105E0002507E0022505E0F3
:10390000042503E0082501E0102500BF28E05D49FB
:103910002068884217D15A4840690C210840002885
:1039200006D0042808D0082804D00C2808D105E0C7
:10393000002507E0022505E0042503E0082501E055
:10394000102500BF0CE050492068884201D10025B5
:1039500006E04E492068884201D1002500E010258C
:1039600000BF0121C903E069884241D1002D06D082
:10397000022D08D0042D08D0082D0DD109E0FDF747
:103980006BFE06460CE0424E0AE0FDF779FE064665
:1039900006E00126F60303E000260120019000BFA7
:1039A00000BF002E5BD0606A40003A4A115A304690
:1039B000FCF7D6FB40006168490840180090616838
:1039C000FCF7CEFB0746102F0FD3334887420CD8A5
:1039D00031480F38384002903807400F02990843A9
:1039E000029002982168C86039E00120019036E019
:1039F000002D06D0022D08D0042D08D0082D0DD1A1
:103A000009E0FDF729FE06460CE0214E0AE0FDF72D
:103A100037FE064606E00126F60303E000260120F5
:103A2000019000BF00BF002E19D0606A4000194A03
:103A3000115A3046FCF794FB616849084018009021
:103A40006168FCF78DFB0746102F06D312488742AA
:103A500003D8B8B22168C86001E0012001900121BB
:103A60006A20015368200153002020676067019895
:103A700005B0F0BDF369FFCFFFF4FF11003801403E
:103A8000401002400044004000480040004C00400C
:103A90000024F400D8BD0008FFFF0000F8B504467C
:103AA0000E461546A6655C2005535E200553002092
:103AB000206700BF01210903A06888420AD120695C
:103AC000002803D15D496020015324E0FF216020DC
:103AD000015320E0A06800280AD12069002803D102
:103AE000FF216020015316E07F216020015312E086
:103AF00001210907A06888420AD12069002803D162
:103B00007F216020015306E03F216020015302E045
:103B100000216020015300BF00218C20015122218F
:103B20008820015100BF00F018FB0746012000F07B
:103B300026FB206880680121084321688860384698
:103B400000F01DFB00BF01214907606E88423BD198
:103B50006820005BA84237DC4914A068884205D180
:103B60002069002802D13648206701E035482067E7
:103B700000BF00218020015500BF2069002811D01E
:103B800000BF00F0EAFA0746012000F0F8FA2068CA
:103B90000068FF210131084321680860384600F0C1
:103BA000EEFA00BF00BF00F0D8FA0746012000F08F
:103BB000E6FA2068806801210907084321688860C7
:103BC000384600F0DCFA37E001210903A06888429A
:103BD00005D12069002802D11B48206701E01B485D
:103BE000206700BF00218020015500BF2069002808
:103BF00011D000BF00F0B1FA0746012000F0BFFA73
:103C000020680068FF212131084321680860384698
:103C100000F0B5FA10E000BF00F09FFA074601205F
:103C200000F0ADFA20680068202108432168086090
:103C3000384600F0A4FA00BF0020F8BDFF010000E4
:103C400069330008613600088132000879350008C0
:103C500070B5044684200059212834D15620005BD9
:103C6000002821D100BF00F078FA0646012000F0BC
:103C700086FA206800688021884321680860304601
:103C800000F07DFA00BF00BF00F067FA0646012091
:103C900000F075FA20680068402108432168086038
:103CA000304600F06CFA0EE0256D2888C005C00D86
:103CB00021688862206D801C20655620005B401EB4
:103CC00081B25620015370BDF8B5044684200059D6
:103CD000212844D16A20055B3EE05620005B002885
:103CE00023D100BF00F039FA0746012000F047FA5F
:103CF000206880680121C9058843216888603846AA
:103D000000F03DFA00BF00BF00F027FA074601208F
:103D100000F035FA206800684021084321680860F7
:103D2000384600F02CFA00BF18E02068C0698021F6
:103D3000084000280ED0266D3088C005C00D2168CF
:103D40008862206D801C20655620005B401E81B279
:103D500056200153681E85B2002DBED100BFF8BDAC
:103D600070B5044684200059212832D15620005BCA
:103D7000002821D100BF00F0F0F90546012000F035
:103D8000FEF9206800688021884321680860284681
:103D900000F0F5F900BF00BF00F0DFF90546012093
:103DA00000F0EDF9206800684021084321680860B0
:103DB000284600F0E4F90CE0206D00782168886264
:103DC000206D401C20655620005B401E81B25620AD
:103DD000015370BD70B5044684200059212842D19A
:103DE0006A20055B3CE05620005B002823D100BF21
:103DF00000F0B3F90646012000F0C1F920688068A0
:103E00000121C905884321688860304600F0B7F970
:103E100000BF00BF00F0A1F90646012000F0AFF995
:103E2000206800684021084321680860304600F09F
:103E3000A6F900BF16E02068C0698021084000286C
:103E40000CD0206D007821688862206D401C2065B0
:103E50005620005B401E81B256200153681E85B279
:103E6000002DC0D100BF70BDFFB581B004460D4626
:103E700017460A9E7BE0701C002878D0FDF7ACF94D
:103E80000499401AB04201D8002E2FD100BF00F093
:103E900064F90090012000F072F920680068FF21A9
:103EA000A131884321680860009800F068F900BFDC
:103EB00000BF00F052F90090012000F060F9206886
:103EC00080684008400021688860009800F057F939
:103ED00000BF2021842001518820015100BF002112
:103EE0008020015500BF032005B0F0BD20680068A8
:103EF0000421084000283AD02068C06949020840DF
:103F0000C00A002833D008462168086200BF00F0CC
:103F100024F90090012000F032F920680068FF21A8
:103F2000A131884321680860009800F028F900BF9B
:103F300000BF00F012F90090012000F020F9206885
:103F400080684008400021688860009800F017F9F8
:103F500000BF202184200151882001518C20015173
:103F600000BF00218020015500BF0320BCE720686E
:103F7000C0692840A84201D1012000E00020B842D9
:103F800000D178E70020AFE710B50248FEF740FA0D
:103F900010BD0000A03000200FB410B503A9044BE1
:103FA000044A029800F08CFC10BC08BC04B018470E
:103FB000576F0008940100200FB410B504A9074BF7
:103FC00002AA039800F07CFC044602A9002001F03C
:103FD000AAF8204610BC08BC04B0184727510008B6
:103FE0007CB51D4616460C0001D0611E00E0002184
:103FF00001910090054B6A462946304600F060FC6E
:10400000002C02D0009A002111707CBD11510008D3
:104010002021020C01D010211046020A01D01046C6
:104020000839020901D01046091F820801D0104644
:10403000891E420801D0881E7047081A704730B4A4
:104040007446641E2578641CAB4204D3635D5B0038
:10405000E31830BC18471D46F8E7000010B50028EB
:1040600019DB1A4A03231B02D21883089B00D2587B
:104070008307DC0EFF23A3409A438B071B0E8407A4
:10408000E40EA3401A43114B032424021B19840895
:10409000A4001A5118E00E4A03071B0F083B9B08A7
:1040A0009B00D2588307DC0EFF23A3409A438B0763
:1040B0001B0E8407E40EA3401A43054B0407240F8C
:1040C000083CA408A4001A5110BD000000E100E063
:1040D0001CED00E010B5002819DB1A4A03231B026F
:1040E000D21883089B00D2588307DC0EFF23A3401D
:1040F0009A438B071B0E8407E40EA3401A43114B0F
:10410000032424021B198408A4001A5118E00E4A43
:1041100003071B0F083B9B089B00D2588307DC0E4C
:10412000FF23A3409A438B071B0E8407E40EA34092
:104130001A43054B0407240F083CA408A4001A5195
:1041400010BD000000E100E01CED00E000487047F9
:1041500098010020EFF305807047EFF3108070475F
:1041600002E008C8121F08C1002AFAD17047704740
:10417000002001E001C1121F002AFBD1704780F32B
:104180001088704710B5044600BF124800684028E8
:1041900007D3FF23B8331048002102680FA000F0B6
:1041A0002DF800BF0B480068002808D100BF04E0CC
:1041B00000218200104B9950401C4028F8D305483C
:1041C00001680068401C034A106088000A490C50CE
:1041D00010BD000028000020240000205F656466F8
:1041E0005F6465766963655F636F756E74203C20FC
:1041F00028363429000000009C020020F8B504464F
:104200000F4615461E460BA0FFF7C6FE324629464E
:104210000FA0FFF7C1FE002C04D0214611A0FFF72C
:10422000BBFE03E0394614A0FFF7B6FE01F046FCE2
:10423000F8BD00001B5B313B33316D417373657218
:1042400074206661696C757265210D0A00000000BA
:104250004C6F636174696F6E3A2025732025642E5C
:104260000D0A000041737365727420696E666F3ABF
:104270002025732E0D0A0000417373657274206946
:104280006E666F3A2025642E0D0A000070B5044654
:104290000D4600BF002C06D18C2304480021026883
:1042A00003A0FFF7ABFF00BF002070BD640100203A
:1042B0006D6520213D204E554C4C000010B50D4839
:1042C0000068002812D10C4803F087FC09490860F7
:1042D00000BF08460068002807D1FF23B033074815
:1042E0000021026806A0FFF789FF00BF01480068AF
:1042F00010BD00002C000020F0BB000824000020AE
:104300005F6D757465785F65646620213D203000BF
:104310000FB4FEB505460C461D480068002804D1C0
:104320001C4803F05AFC1A4908600021C943184888
:10433000006803F019FC18480078A04220DB02F066
:1043400071FD064600901548025DA000144B1958F7
:104350002B4614A0FFF720FE0BA80190FF21154863
:10436000019B0A9AFFF73CFE074600200190114985
:10437000C85511A0FFF710FE10A0FFF70DFE00BFFB
:104380000348006803F08CFCFEBC08BC04B018476E
:1043900020000020C4BB00081C000020E8BB00086F
:1043A000D4BB000825735B25632F25732025755D1D
:1043B000200000009C010020257300001B5B303BA7
:1043C000306D0D0A00000000002404E060B200F02F
:1043D000E5F9601CC4B20648002141568C42F5DD67
:1043E00004E000F023FA0A2003F066FBF9E700007E
:1043F0001800002072B600BFFEE70000F0B51FB441
:1044000086B00998089A030D0021024314D0514840
:10441000514A1818504305141198012810981AD0C1
:10442000281A401C00264D4F4D49009601910490DA
:10443000002812DA444211E01198012449A301280E
:1044400001D11098C1430698119A84600360C2603C
:1044500041600BB0F0BD4042E4E704462105002076
:104460003F4A001C51410391029012E0E00707D03F
:1044700032463B4601990098FCF72EF801910090D6
:1044800032463B4610461946FCF726F806460F46CC
:104490006410002CEAD10498039B0028029A099921
:1044A000089806DAFCF718F8019B009AFCF714F854
:1044B00005E0FCF779F8019B009AFCF775F80446D3
:1044C0000E460022284BFCF775FA03D80020C043A3
:1044D000014607E00022254B20463146FBF748FF06
:1044E000FCF748FA102409E0002C0ADB0A2200231A
:1044F000FCF714F9079B30321A55641E02460A4332
:10450000F2D11122641C079B121B1C19119B012B59
:1045100003D0012308430ED10AE0084304D0112040
:1045200010900020119077E71098151A6D1E0BE07F
:104530001098824202DD00236D1C03E0824201DA02
:1045400000236D1E002BEED0069811998260C16089
:1045500030C07EE701FCFFFF104D0000000014405A
:104560000000F03F300000000000F0430000E03F9A
:1045700030B5214B0CE019461C390A461F4D146812
:10458000AC4202D19469AC4200D002E0134600BFB5
:10459000F1E700BF1A4A1360002027E01C224243C3
:1045A000174C2468A258154CA2421ED11C2242432B
:1045B000134C246812199269104CA24215D11C2286
:1045C00042430F4C246814191122A2560D4C0025A9
:1045D0006557AA4207DD1C224243094C2468121980
:1045E000527C084C2270401C00E000E0D6E700BF7F
:1045F000054A106030BD000078C40008A5A5A5A537
:1046000008000020180000200C000020F8B52C4EF7
:104610000CE035461C3D28462A4A0168914202D1E9
:104620008169914200D002E0064600BFF1E700BF79
:104630002548066000243EE01C20604322490968AA
:1046400008582049884235D11C2060431E4909681A
:10465000401880691B4988422CD100BF1C20604350
:1046600019490968401840690021184A0B46101A78
:104670008B410CDA1C216143134A12688918FF230D
:104680000F33486812490A680021FFF7B7FD00BFE1
:104690001C2060430C4909684018C76802F0C2FB3F
:1046A0001C216143084A126889184969401838601A
:1046B000641C00E000E0BFE700BF06480460F8BDEE
:1046C00090C50008EFBEEFBE1000002000C87E9A23
:1046D0000000002014000020FEB504460F4600BF75
:1046E000002C06D185230E48002102680DA0FFF79B
:1046F00085FD00BFA569686A02F044FC0190686A04
:1047000002F034FC009000990198FCF755FD064634
:10471000012E00D100E0002038700020FEBD000016
:10472000480100206D6520213D204E554C4C000075
:10473000F0B585B0044600BF002C06D13B231348DA
:104740000021026812A0FFF759FD00BFA569686A41
:1047500002F018FC0746686A02F008FC06461421BD
:104760006846FBF740FD0120019000200290009672
:10477000039069463846FCF733FC00223146384640
:10478000FCF723FD002005B0F0BD0000480100202B
:104790006D6520213D204E554C4C000070B50546FE
:1047A000002424E01C2060431349096841181120AB
:1047B0000856A8421AD11C2060430F4909684018C6
:1047C000007C002812D1681C002808D01C206043FF
:1047D000094A12688018416808A0FFF7DDFB1C2118
:1047E0006143054A1268891888688047641C084834
:1047F00000688442D6D370BD080000204578706FF1
:10480000727420696E69742025732E0D0A000000F1
:104810000C00002002460020704710B5044600201E
:1048200010BD10B50446184610BD0000F8B50027AD
:104830003AE01C2078431F4909684018C66830E0F8
:1048400002F0F0FA0025044600212A463068201ABA
:104850008A410DD23068001BA941174B0022181A5B
:104860008A4105D3284600221146A418484105462E
:1048700000212A463068201A8A4110D31C20784330
:104880000C4A3168126880184069081830601C2191
:104890007943084A126889188868804700E001E077
:1048A00000BFCDE700BF7F1C044800688742C0D32B
:1048B000F8BD000010000020FF37816514000020C3
:1048C000FFB597B0064600251BE2252876D10024C7
:1048D0002746F749049400E00443761C327801200F
:1048E000203A90400842F7D130782A280ED0022290
:1048F000307801463039092916D804990A235943DA
:10490000303940181443761C0490F1E7189802C817
:1049100004911890002904DA01204003044348421E
:10492000049002200443761C30782E2814D10420F1
:1049300004437078761C2A2809D11898761C80C800
:10494000189009E00A214F43303FC719761C307890
:10495000014630390929F5D930786C2810D006DCA9
:104960004C281AD068280ED06A2817D104E0742881
:1049700013D07A2812D110E00120400504430CE046
:104980000121090501E0032109050C4371788142E9
:1049900003D1012000052418761C761C3078662887
:1049A0000BD013DC58287DD009DC00287BD04528AB
:1049B000F6D04628F4D047281AD1A9E118E0632898
:1049C00035D0642870D0652812D1A1E170286CD050
:1049D00008DC6728F1D069287DD06E280DD06F28BB
:1049E00006D1BCE073282ED0752873D0782859D012
:1049F0001A9A199990476D1C82E16002400F0228B3
:104A000009D003280DD00428189801680DD00D6036
:104A1000001D189074E11898EA1701680D604A604B
:104A2000F6E7189801680D80F2E70D70F0E7189826
:104A30006A4601781172001D18900020507202A879
:104A40000090012005E0189802C8189000200091FD
:104A5000C04361070ED5002101E00199491C019175
:104A6000B94213DA8142F8DB019A0099895C002986
:104A7000F3D10BE0002101E00199491C0191814231
:104A8000FADB019A0099895C0029F5D10199049813
:104A90001A9B471A21463846199A00F099FA40198C
:104AA000019903E051E030E115E050E0451807E0DE
:104AB000009800990078491C00911A9A199990471A
:104AC0000198401E0190401CF2D1214638461A9BA5
:104AD000199A12E137E00A2000210090019160024A
:104AE000410F022907D0189A01CA1892C21794469A
:104AF000032908D00AE01898C01DC108C90005C9DB
:104B00001891944607E000B2C2179446042902D1D6
:104B100040B2C1178C4600226146944506DA0A4627
:104B20000021404291418C462D2102E0210504D50F
:104B30002B216A461173012103E0E10701D02021F6
:104B4000F7E7029156E00A200AE0102008E0102062
:104B500000900021042004430191082703E008206D
:104B60000021019100906002410F022907D0189A9C
:104B700001CA189200229446032908D008E0189828
:104B8000C01DC108C90005C91891944603E080B250
:104B9000042900D1C0B20021029121072AD5317821
:104BA0000D91702906D0009A1021019B4A401A43AA
:104BB00005D00EE040216A461173012108E06146EC
:104BC000014306D030216A4611730D9951730221B9
:104BD0000291009A0821019B4A401A430AD161467A
:104BE000014301D1610705D530216A4611730121C6
:104BF0007F1E02913178582904D02EA10E910DA963
:104C00000D910DE030A1F9E76146019B009AFBF799
:104C100085FD0E9B8C469B5C0D9A521E0D92137067
:104C200061460143F0D10D9805A9081A2030019082
:104C3000600703D501200004844300E001270198A8
:104C4000874201DD381A00E00020019900904118E8
:104C5000029809180498401A0490E00306D42146EB
:104C60001A9B199A049800F0B3F94519002706E039
:104C700003A81A9AC05D199990476D1C7F1C029871
:104C80008742F5DBE0030CD521461A9B199A04985C
:104C900000F09EF9451904E01A9A302019999047BE
:104CA0006D1C0099481E00900029F5DC1FE00000F3
:104CB00009280100303132333435363738396162F2
:104CC00063646566000000003031323334353637B6
:104CD0003839414243444546000000000D980D9983
:104CE0000078491C0D911A9A199990476D1C0199E9
:104CF000481E01900029F1DC4DE100F059F94519F9
:104D0000761C3078002800D0DFE528461BB0F0BDC7
:104D1000600700D406271898C01DC108C90048685C
:104D20000A680831C30FDB071891190001D09CA154
:104D300008E0210501D59BA104E0E10701D09AA17B
:104D400000E09AA14300109130785B0865280CD0F0
:104D500006DC452809D046281DD0472841D141E02E
:104D6000662818D067283CD13CE00021112F01DBD8
:104D7000112000E0781C0191009008A911A8FFF70C
:104D80003DFB139905910021119A15927F1C1298F1
:104D90000197009150E00120C0070390012001908D
:104DA00008A9009711A8FFF729FB139A14990592F7
:104DB0000022119B009212981593059A01920029E6
:104DC00001D0104602E0791C40180190381A01D534
:104DD000019804E04042401E0090781C0190C01BE6
:104DE000029043E0012F00DA01270021112F01DD9D
:104DF000112000E038460191009008A911A8FFF7A2
:104E0000FDFA13990591119A0021129815920091BB
:104E1000019721070CD40599B94201DB019900E003
:104E20000191012904DD159A491E515C302906D0F3
:104E3000B84201DA011D05DA0121029115E001995C
:104E4000491EEDE7002805DC009941180091019901
:104E5000091A03E0019A411C914200DD0191009979
:104E6000401A401C02900120C0070390200706D47E
:104E700002990198814202DB0020C0430290002089
:104E80006946C87707AF012103980337C9078842ED
:104E900024D0022011902B201290039800280CDAC5
:104EA000404203902D20129007E00A210398FBF75F
:104EB00057F930317F1E039039701199481E1190B7
:104EC0000029F2DC03980028EFD1791E12980870AF
:104ED0003078202108404530BF1E387006A8C01B1E
:104EE000C01D039010980078002800D0012001997F
:104EF00041180298C0170918039809180498401A15
:104F0000401E0490E00306D421461A9B199A049887
:104F100000F05EF8451910980078002803D01A9A1E
:104F2000199990476D1CE00324D521461A9B199AC4
:104F3000049800F04DF845191CE00098002807DBA4
:104F400000990598884203DD1598405C199901E0A5
:104F5000199930201A9A904700986D1C401C0090B7
:104F60000298401E0290002804D11A9A2E20199906
:104F700090476D1C0199481E01900029DDDC05E079
:104F800038781A9A7F1C199990476D1C0399481E0E
:104F900003900029F4DC21461A9B199A0498ACE688
:104FA0002D0000002B000000200000000000000089
:104FB000F8B5044600251E461746880404D405E0CB
:104FC00039462020B0476D1C641EF9D52846F8BD2F
:104FD000FFB50446002581B01E46C80301D5302721
:104FE00000E02027880404D505E038460399B0473F
:104FF0006D1C641EF9D5284605B0F0BDF0B587B02C
:1050000005460C4600BF002D06D15523244800213B
:10501000026824A0FFF7F2F800BF00BF052C06DBF2
:1050200056231F480021026821A0FFF7E7F800BFC0
:10503000AE69706A01F0A6FF0690706A01F096FFF3
:105040000746142101A8FBF7CEF8002C03D100205D
:10505000029003901AE0012C04D10020029001205C
:10506000039013E0022C04D1002002900220039050
:105070000CE0032C04D1012002900020039005E0F5
:10508000042C03D1112002900120039001970020ED
:10509000049001A90698FBF7A3FF002007B0F0BD1C
:1050A000480100206D6520213D204E554C4C0000EC
:1050B0006D6F6465203C2050494E5F4D4F44455F05
:1050C0004D415800F8B504460E4600BF002C06D1ED
:1050D00099230B48002102680AA0FFF78FF800BF50
:1050E000A569686A01F04EFF0746686A01F03EFF55
:1050F0000090324638460099FCF767F80020F8BD6A
:10510000480100206D6520213D204E554C4C00008B
:105110004A68002A06D00A68531C0B601070486861
:10512000401E486070470A68531C0B60107070473F
:1051300000B591B0342104A8FBF755F80020009089
:1051400001900290039001204002FCF7CDF801206D
:1051500004900004059002200B9003210C91002183
:105160000D9110210E9101040F910107109104A8D7
:10517000FCF7F8FA002801D0FFF73CF9072000906F
:105180000220019000200290039002216846FCF763
:10519000D7F8002801D0FFF72DF911B000BD70B588
:1051A00005462C462C20005D012829D102F095FCF3
:1051B000A16A884276D33020005D002801D1012108
:1051C00000E00021302001553122125D002A02D07A
:1051D0003022125D06E03022125D002A01D1012248
:1051E00000E00022002A01D0012200E00022114646
:1051F000206A01F04BFB616AA06A4018A06251E08E
:105200002C20005D02284DD102F067FCA16A884283
:1052100048D33020005D002801D1012100E00021A9
:10522000302001553122125D002A02D03022125D59
:1052300006E03022125D002A01D1012200E00022A6
:10524000002A01D0012200E000221146206A01F06C
:105250001DFB2E20005D401CC1B22E200155015DBA
:105260002F20005D814202DB00212E2001552E20DF
:10527000005D002805D17D210901A06A4018A062C7
:1052800010E02E21085DC10F091849104900411A8C
:1052900004D1A06AFF30F530A06203E0A06AFF30BD
:1052A000F530A06270BD70B505462C463520005D16
:1052B00001280DD102F011FC216B884209D3012194
:1052C000204600F039FAE16A206B4018206300E0C4
:1052D00000BF70BDF8B505460C46E869866902272F
:1052E000206800280BD06068002808D0208983B28D
:1052F000304662682168FCF77BFE07461EE02068A6
:10530000002807D1208982B230466168FCF788FD09
:10531000074613E06068002807D1208982B2304632
:105320002168FCF78DFF074608E000BFB62304485C
:105330000021026803A0FEF761FF00BF0020F8BD56
:105340006401002066616C736500000008B504A06C
:1053500009A30DA20EA10090104800F093FA08BD19
:1053600075745F726563656976655F373468633449
:105370003035326400000000666972655F3734685A
:1053800063343035326400006D73313032320000E6
:10539000616E656D6F6D657465723100A43D0020AE
:1053A00010B5FBF71FFFFFF7C3FE10BDF8B50446AD
:1053B00001272046FAF722FF042802D160782E2820
:1053C00001D0002716E02078412802DB207846280B
:1053D00001DD00270EE0A078302802DBA078392814
:1053E00001DD002706E0E078302802DBE07839288C
:1053F00000DD0027A61C3046FAF731FF0546002DD8
:1054000001DB102D00DB00273846F8BD10B5024641
:105410000020032005E0491CC4001346E3400B7044
:10542000401E0028F7DA10BDF0B58BB00446270CFB
:10543000A0B209900998FBF73AF90190FBF73EF901
:10544000054600220C4BFBF7AFF805910490384657
:10545000FBF72DF90546FBF731F903910290059B07
:10546000049AFAF785FF07910690FBF73BF908903D
:1054700008980BB0F0BD00000000F04010B52BA262
:105480002CA12F4800F0CEFC03212D4801F0DCF9BF
:105490002CA22EA12F4800F0C5FC03212D4801F0BD
:1054A000D3F92DA22EA1324800F0BCFC03213048D4
:1054B00001F0CAF92FA231A1344800F0B3FC032156
:1054C000324801F0C1F932A233A1364800F0AAFCFB
:1054D0000321344801F0B8F933A235A1384800F06F
:1054E000A1FC0321364801F0AFF936A237A13B48B1
:1054F00000F098FC0321394801F0A6F938A23AA13E
:105500003D4800F08FFC03213B4801F09DF901214B
:10551000394801F0BBF939A23AA13E4800F082FCBB
:1055200002213C4801F090F910BD0000422E3036B7
:105530000000000070696E5F6C656431000000005F
:10554000503B0020422E303000000000656E5F6648
:1055500069726500783B0020422E30320000000066
:10556000666972655F737769746368300000000074
:10557000A03B0020422E31300000000066697265B9
:105580005F7377697463683100000000C83B0020D6
:10559000432E303000000000656E5F726563656900
:1055A00076650000F03B0020432E30320000000002
:1055B000726563656976655F7377697463683000E7
:1055C000183C0020432E30330000000072656365F4
:1055D0006976655F7377697463683100403C0020C9
:1055E000412E30340000000070696E5F6D73313001
:1055F00032325F6373000000683C0020412E30357A
:105600000000000070696E5F6D73313032325F6987
:105610006E746E00903C00201FB5074903C90391CA
:1056200002900399029805A308A20191009009A194
:105630000B4801F029FA1FBD7CBE000870696E5F3F
:105640006D73313032325F63730000005350493163
:10565000000000007370695F6D73313032320000FA
:10566000103D002070B504460D4600BF002C06D149
:1056700066232C48002102682BA0FEF7BFFD00BF67
:105680002B00FEF7DCFC074B05111D293F354B00B5
:105690000221206A01F0E0FE0421606A01F0DCFED4
:1056A0000121342001553AE00421206A01F0D4FEA2
:1056B0000221606A01F0D0FE0221342001552EE063
:1056C0000121206A01F0C8FE0321606A01F0C4FED6
:1056D00003213420015522E00321206A01F0BCFEA1
:1056E0000121606A01F0B8FE04213420015516E062
:1056F000206A01F007FF606A01F004FF06213420F0
:1057000001550CE00221206A01F0A6FE0221606A28
:1057100001F0A2FE06213420015500E000BF00BFC9
:1057200070BD000078010020616E656D6F6D65745D
:10573000657220213D20300070B504460D4600BF43
:10574000002C06D1B42307480021026806A0FEF70A
:1057500055FD00BFE06900F0B7FC2946204600F087
:105760000BF870BD78010020616E656D6F6D65741A
:10577000657220213D203000FEB504460F4600BF73
:10578000002C06D19B2314480021026813A0FEF7C9
:1057900035FD00BF39462046FFF764FF7021E06900
:1057A00000F064FF0121E06900F060FFE06900F0B3
:1057B00079FFE06900F0F8FDE06900F073FD029008
:1057C0000298FAF77BFF09A2019100900421024898
:1057D0000068FEF79DFDFEBD78010020616E656DDD
:1057E0006F6D6574657220213D20300064617461C5
:1057F0003D25660070B506460D4600BF002E06D159
:10580000C42311480021026810A0FEF7F7FC00BF76
:1058100000BF322D06D2C5230B48002102680EA01E
:10582000FEF7ECFC00BF34463520005D012802D1B4
:10583000E06AA84207D001213520015502F04DF958
:1058400040192063E56270BD780100206D6520215C
:105850003D204E554C4C0000706572696F645F6D61
:1058600073203E3D20454C41425F414E454D4F4DDA
:10587000455445525F504F4C4C5F5045524F494440
:1058800000000000FEB504460D4616461F4600BF48
:10589000002C06D1382348480021026847A0FEF7B3
:1058A000ADFC00BF00BF002D06D1392342480021C6
:1058B000026845A0FEF7A2FC00BF00BF002E06D183
:1058C0003A233D480021026843A0FEF797FC00BF41
:1058D00000BF0898002806D13B2337480021026802
:1058E00042A0FEF78BFC00BF00BF284600F08EFAF6
:1058F000002806D03D2330480021026841A0FEF771
:105900007DFC00BF00BF304600F080FA002806D1C1
:105910003E2329480021026841A0FEF76FFC00BF2A
:1059200000BF089800F072FA002806D13F232248F1
:105930000021026842A0FEF761FC00BF0020029037
:10594000304600F039F9E061384600F035F9206260
:10595000089800F031F96062414B2246012141482C
:1059600002F0FEFAA06200BFA06A002806D1492317
:105970001148002102682846FEF740FC00BF322192
:10598000A06A02F04FFB029000BF0298002806D0E8
:105990004B2309480021026833A0FEF72FFC00BF0B
:1059A000354903C90191009000953448606169460A
:1059B000204600F091F9FEBD780100206D652021A0
:1059C0003D204E554C4C00006E616D6520213D2000
:1059D0004E554C4C000000006D73313032325F6E1A
:1059E000616D6520213D204E554C4C00726563650C
:1059F0006976655F6E616D6520213D204E554C4C8A
:105A00000000000021656C61625F64657669636512
:105A10005F76616C6964286E616D65290000000025
:105A2000656C61625F6465766963655F76616C6908
:105A300064286D73313032325F6E616D652900000C
:105A4000656C61625F6465766963655F76616C69E8
:105A50006428726563656976655F6E616D652900AE
:105A600064BE0008A75200087265745F6F73203D22
:105A70003D206F734F4B000074BE000850BE0008FD
:105A800070B5044600BF002C06D1D9230748002179
:105A9000026807A0FEF7B2FB00BF25463520405D37
:105AA000022802D002213520415570BD7801002026
:105AB0006D6520213D204E554C4C000000BFFEE797
:105AC00010B5044613481449086008464460002194
:105AD0008160C16001610C21416100218161C1616E
